{
  "contractName": "AuctionStore",
  "abi": [
    {
      "inputs": [],
      "stateMutability": "nonpayable",
      "type": "constructor"
    },
    {
      "anonymous": false,
      "inputs": [
        {
          "indexed": false,
          "internalType": "address",
          "name": "beneficiary",
          "type": "address"
        },
        {
          "indexed": false,
          "internalType": "uint256",
          "name": "amount",
          "type": "uint256"
        }
      ],
      "name": "returnMoney",
      "type": "event"
    },
    {
      "inputs": [],
      "name": "defaultaddress",
      "outputs": [
        {
          "internalType": "address",
          "name": "",
          "type": "address"
        }
      ],
      "stateMutability": "view",
      "type": "function"
    },
    {
      "inputs": [],
      "name": "productIndex",
      "outputs": [
        {
          "internalType": "uint256",
          "name": "",
          "type": "uint256"
        }
      ],
      "stateMutability": "view",
      "type": "function"
    },
    {
      "inputs": [],
      "name": "totalBidders",
      "outputs": [
        {
          "internalType": "uint256",
          "name": "",
          "type": "uint256"
        }
      ],
      "stateMutability": "view",
      "type": "function"
    },
    {
      "inputs": [
        {
          "internalType": "string",
          "name": "_name",
          "type": "string"
        },
        {
          "internalType": "string",
          "name": "_category",
          "type": "string"
        },
        {
          "internalType": "uint256",
          "name": "_startPrice",
          "type": "uint256"
        }
      ],
      "name": "addProductToStore",
      "outputs": [
        {
          "internalType": "bool",
          "name": "",
          "type": "bool"
        }
      ],
      "stateMutability": "nonpayable",
      "type": "function"
    },
    {
      "inputs": [
        {
          "internalType": "uint256",
          "name": "_productId",
          "type": "uint256"
        }
      ],
      "name": "getProduct",
      "outputs": [
        {
          "internalType": "uint256",
          "name": "",
          "type": "uint256"
        },
        {
          "internalType": "string",
          "name": "",
          "type": "string"
        },
        {
          "internalType": "string",
          "name": "",
          "type": "string"
        },
        {
          "internalType": "uint256",
          "name": "",
          "type": "uint256"
        },
        {
          "internalType": "address",
          "name": "",
          "type": "address"
        },
        {
          "internalType": "bool",
          "name": "",
          "type": "bool"
        }
      ],
      "stateMutability": "view",
      "type": "function"
    },
    {
      "inputs": [
        {
          "internalType": "uint256",
          "name": "id",
          "type": "uint256"
        },
        {
          "internalType": "uint256",
          "name": "_timeLimit",
          "type": "uint256"
        }
      ],
      "name": "setAuctionStart",
      "outputs": [
        {
          "internalType": "bool",
          "name": "",
          "type": "bool"
        }
      ],
      "stateMutability": "nonpayable",
      "type": "function"
    },
    {
      "inputs": [
        {
          "internalType": "uint256",
          "name": "id",
          "type": "uint256"
        }
      ],
      "name": "getMoney",
      "outputs": [
        {
          "internalType": "uint256",
          "name": "",
          "type": "uint256"
        }
      ],
      "stateMutability": "view",
      "type": "function"
    },
    {
      "inputs": [
        {
          "internalType": "uint256",
          "name": "id",
          "type": "uint256"
        }
      ],
      "name": "tobid",
      "outputs": [
        {
          "internalType": "uint256",
          "name": "",
          "type": "uint256"
        }
      ],
      "stateMutability": "payable",
      "type": "function"
    },
    {
      "inputs": [
        {
          "internalType": "uint256",
          "name": "id",
          "type": "uint256"
        }
      ],
      "name": "break_promise",
      "outputs": [
        {
          "internalType": "bool",
          "name": "",
          "type": "bool"
        }
      ],
      "stateMutability": "nonpayable",
      "type": "function"
    },
    {
      "inputs": [
        {
          "internalType": "uint256",
          "name": "id",
          "type": "uint256"
        }
      ],
      "name": "owerbreak_promise",
      "outputs": [
        {
          "internalType": "bool",
          "name": "",
          "type": "bool"
        }
      ],
      "stateMutability": "payable",
      "type": "function"
    },
    {
      "inputs": [
        {
          "internalType": "uint256",
          "name": "id",
          "type": "uint256"
        }
      ],
      "name": "setAuctionEnd",
      "outputs": [],
      "stateMutability": "nonpayable",
      "type": "function"
    },
    {
      "inputs": [
        {
          "internalType": "address",
          "name": "addr",
          "type": "address"
        }
      ],
      "name": "getBalance",
      "outputs": [
        {
          "internalType": "uint256",
          "name": "",
          "type": "uint256"
        }
      ],
      "stateMutability": "view",
      "type": "function"
    },
    {
      "inputs": [],
      "name": "queryBalance",
      "outputs": [
        {
          "internalType": "uint256",
          "name": "",
          "type": "uint256"
        }
      ],
      "stateMutability": "view",
      "type": "function"
    },
    {
      "inputs": [
        {
          "internalType": "uint256",
          "name": "id",
          "type": "uint256"
        }
      ],
      "name": "highestBidderInfo",
      "outputs": [
        {
          "internalType": "address",
          "name": "",
          "type": "address"
        },
        {
          "internalType": "uint256",
          "name": "",
          "type": "uint256"
        }
      ],
      "stateMutability": "view",
      "type": "function"
    },
    {
      "inputs": [
        {
          "internalType": "uint256",
          "name": "id",
          "type": "uint256"
        }
      ],
      "name": "totalBid",
      "outputs": [
        {
          "internalType": "uint256",
          "name": "",
          "type": "uint256"
        }
      ],
      "stateMutability": "view",
      "type": "function"
    },
    {
      "inputs": [
        {
          "internalType": "uint256",
          "name": "id",
          "type": "uint256"
        }
      ],
      "name": "showProductstatus",
      "outputs": [
        {
          "internalType": "uint256",
          "name": "",
          "type": "uint256"
        },
        {
          "internalType": "bool",
          "name": "",
          "type": "bool"
        }
      ],
      "stateMutability": "view",
      "type": "function"
    },
    {
      "inputs": [],
      "name": "getNewInformation",
      "outputs": [
        {
          "internalType": "address",
          "name": "",
          "type": "address"
        },
        {
          "internalType": "uint256",
          "name": "",
          "type": "uint256"
        }
      ],
      "stateMutability": "view",
      "type": "function"
    },
    {
      "inputs": [
        {
          "internalType": "uint256",
          "name": "id",
          "type": "uint256"
        }
      ],
      "name": "timeRemaining",
      "outputs": [
        {
          "internalType": "uint256",
          "name": "",
          "type": "uint256"
        }
      ],
      "stateMutability": "view",
      "type": "function"
    },
    {
      "inputs": [
        {
          "internalType": "uint256",
          "name": "id",
          "type": "uint256"
        },
        {
          "internalType": "uint256",
          "name": "_addtime",
          "type": "uint256"
        }
      ],
      "name": "AddTime",
      "outputs": [],
      "stateMutability": "nonpayable",
      "type": "function"
    }
  ],
  "bytecode": "0x608060405234801561001057600080fd5b50600060028190555061261b806100286000396000f3fe6080604052600436106101145760003560e01c8063aa9bc5c1116100a0578063de71bf0711610064578063de71bf07146103fa578063dea7de4a14610425578063ea3d902014610462578063f0a7ae7d1461049f578063f8b2cb4f146104cf57610114565b8063aa9bc5c1146102d5578063b9db15b414610312578063c2aab02b14610354578063c897d5a614610391578063ce818ea9146103bc57610114565b80635a1747c4116100e75780635a1747c4146101d65780636b70ff2314610214578063738ce0ca146102445780637bb125a81461026d57806393af89541461029857610114565b80631db02883146101195780632b4e2ea9146101425780633262fd9a1461016e57806336f40c61146101ab575b600080fd5b34801561012557600080fd5b50610140600480360381019061013b9190611b3d565b61050c565b005b34801561014e57600080fd5b506101576105b6565b604051610165929190611bcd565b60405180910390f35b34801561017a57600080fd5b5061019560048036038101906101909190611bf6565b6105da565b6040516101a29190611c23565b60405180910390f35b3480156101b757600080fd5b506101c06105fa565b6040516101cd9190611c23565b60405180910390f35b3480156101e257600080fd5b506101fd60048036038101906101f89190611bf6565b610602565b60405161020b929190611c59565b60405180910390f35b61022e60048036038101906102299190611bf6565b610649565b60405161023b9190611c82565b60405180910390f35b34801561025057600080fd5b5061026b60048036038101906102669190611bf6565b610adc565b005b34801561027957600080fd5b50610282610cc8565b60405161028f9190611c9d565b60405180910390f35b3480156102a457600080fd5b506102bf60048036038101906102ba9190611bf6565b610cee565b6040516102cc9190611c82565b60405180910390f35b3480156102e157600080fd5b506102fc60048036038101906102f79190611dfe565b61114e565b6040516103099190611c82565b60405180910390f35b34801561031e57600080fd5b5061033960048036038101906103349190611bf6565b61127b565b60405161034b96959493929190611f11565b60405180910390f35b34801561036057600080fd5b5061037b60048036038101906103769190611bf6565b611484565b6040516103889190611c23565b60405180910390f35b34801561039d57600080fd5b506103a66114a4565b6040516103b39190611c23565b60405180910390f35b3480156103c857600080fd5b506103e360048036038101906103de9190611bf6565b6114aa565b6040516103f1929190611bcd565b60405180910390f35b34801561040657600080fd5b5061040f611504565b60405161041c9190611c23565b60405180910390f35b34801561043157600080fd5b5061044c60048036038101906104479190611b3d565b61150a565b6040516104599190611c82565b60405180910390f35b34801561046e57600080fd5b5061048960048036038101906104849190611bf6565b6116b0565b6040516104969190611c23565b60405180910390f35b6104b960048036038101906104b49190611bf6565b6116db565b6040516104c69190611c23565b60405180910390f35b3480156104db57600080fd5b506104f660048036038101906104f19190611fac565b611a2f565b6040516105039190611c23565b60405180910390f35b600115156004600084815260200190815260200160002060060160149054906101000a900460ff16151514610576576040517f08c379a000000000000000000000000000000000000000000000000000000000815260040161056d90612025565b60405180910390fd5b8060046000848152602001908152602001600020600401546105989190612074565b60046000848152602001908152602001600020600401819055505050565b600080333373ffffffffffffffffffffffffffffffffffffffff1631915091509091565b600060046000838152602001908152602001600020600801549050919050565b600047905090565b60008060046000848152602001908152602001600020600001546004600085815260200190815260200160002060060160149054906101000a900460ff1691509150915091565b60006004600083815260200190815260200160002060060160149054906101000a900460ff166106ae576040517f08c379a00000000000000000000000000000000000000000000000000000000081526004016106a590612116565b60405180910390fd5b3373ffffffffffffffffffffffffffffffffffffffff166004600084815260200190815260200160002060060160009054906101000a900473ffffffffffffffffffffffffffffffffffffffff1673ffffffffffffffffffffffffffffffffffffffff1614610752576040517f08c379a000000000000000000000000000000000000000000000000000000000815260040161074990612182565b60405180910390fd5b6000600a600460008581526020019081526020016000206005015461077791906121d1565b90508034146107bb576040517f08c379a00000000000000000000000000000000000000000000000000000000081526004016107b290612182565b60405180910390fd5b6004600084815260200190815260200160002060040154421115610814576040517f08c379a000000000000000000000000000000000000000000000000000000000815260040161080b9061224e565b60405180910390fd5b600160009054906101000a900473ffffffffffffffffffffffffffffffffffffffff1673ffffffffffffffffffffffffffffffffffffffff166004600085815260200190815260200160002060070160009054906101000a900473ffffffffffffffffffffffffffffffffffffffff1673ffffffffffffffffffffffffffffffffffffffff16141561099f5760006004600085815260200190815260200160002060060160146101000a81548160ff021916908315150217905550600060046000858152602001908152602001600020600301819055506000600460008581526020019081526020016000206004018190555060006004600085815260200190815260200160002060080181905550600160009054906101000a900473ffffffffffffffffffffffffffffffffffffffff166004600085815260200190815260200160002060070160006101000a81548173ffffffffffffffffffffffffffffffffffffffff021916908373ffffffffffffffffffffffffffffffffffffffff160217905550610ad2565b6004600084815260200190815260200160002060070160009054906101000a900473ffffffffffffffffffffffffffffffffffffffff1673ffffffffffffffffffffffffffffffffffffffff166108fc60046000868152602001908152602001600020600801549081150290604051600060405180830381858888f19350505050158015610a31573d6000803e3d6000fd5b506004600084815260200190815260200160002060070160009054906101000a900473ffffffffffffffffffffffffffffffffffffffff1673ffffffffffffffffffffffffffffffffffffffff166108fc600a6004600087815260200190815260200160002060050154610aa591906121d1565b9081150290604051600060405180830381858888f19350505050158015610ad0573d6000803e3d6000fd5b505b6001915050919050565b6004600082815260200190815260200160002060030154421015610b35576040517f08c379a0000000000000000000000000000000000000000000000000000000008152600401610b2c906122ba565b60405180910390fd5b60016004600083815260200190815260200160002060060160146101000a81548160ff0219169083151502179055610ba2576040517f08c379a0000000000000000000000000000000000000000000000000000000008152600401610b9990612326565b60405180910390fd5b60006004600083815260200190815260200160002060060160146101000a81548160ff0219169083151502179055506000600460008381526020019081526020016000206003018190555060006004600083815260200190815260200160002060040181905550600460008281526020019081526020016000206008015460046000838152602001908152602001600020600501819055506004600082815260200190815260200160002060070160009054906101000a900473ffffffffffffffffffffffffffffffffffffffff166004600083815260200190815260200160002060060160006101000a81548173ffffffffffffffffffffffffffffffffffffffff021916908373ffffffffffffffffffffffffffffffffffffffff16021790555050565b600160009054906101000a900473ffffffffffffffffffffffffffffffffffffffff1681565b60006004600083815260200190815260200160002060060160149054906101000a900460ff16610d53576040517f08c379a0000000000000000000000000000000000000000000000000000000008152600401610d4a90612116565b60405180910390fd5b3373ffffffffffffffffffffffffffffffffffffffff166004600084815260200190815260200160002060060160009054906101000a900473ffffffffffffffffffffffffffffffffffffffff1673ffffffffffffffffffffffffffffffffffffffff161415610df8576040517f08c379a0000000000000000000000000000000000000000000000000000000008152600401610def90612182565b60405180910390fd5b3373ffffffffffffffffffffffffffffffffffffffff166004600084815260200190815260200160002060070160009054906101000a900473ffffffffffffffffffffffffffffffffffffffff1673ffffffffffffffffffffffffffffffffffffffff1614610e9c576040517f08c379a0000000000000000000000000000000000000000000000000000000008152600401610e9390612182565b60405180910390fd5b6004600083815260200190815260200160002060040154421115610ef5576040517f08c379a0000000000000000000000000000000000000000000000000000000008152600401610eec9061224e565b60405180910390fd5b6004600083815260200190815260200160002060070160009054906101000a900473ffffffffffffffffffffffffffffffffffffffff1673ffffffffffffffffffffffffffffffffffffffff166108fc600a60076004600087815260200190815260200160002060080154610f6a9190612346565b610f7491906121d1565b9081150290604051600060405180830381858888f19350505050158015610f9f573d6000803e3d6000fd5b5060006004600084815260200190815260200160002060060160146101000a81548160ff021916908315150217905550600060046000848152602001908152602001600020600301819055506000600460008481526020019081526020016000206004018190555060006004600084815260200190815260200160002060080181905550600160009054906101000a900473ffffffffffffffffffffffffffffffffffffffff166004600084815260200190815260200160002060070160006101000a81548173ffffffffffffffffffffffffffffffffffffffff021916908373ffffffffffffffffffffffffffffffffffffffff1602179055506004600083815260200190815260200160002060060160009054906101000a900473ffffffffffffffffffffffffffffffffffffffff1673ffffffffffffffffffffffffffffffffffffffff166108fc600a6003600460008781526020019081526020016000206008015461110f9190612346565b61111991906121d1565b9081150290604051600060405180830381858888f19350505050158015611144573d6000803e3d6000fd5b5060019050919050565b600080600460006002548152602001908152602001600020905060025481600001819055508481600101908051906020019061118b929190611a50565b50838160020190805190602001906111a4929190611a50565b50828160050181905550338160060160006101000a81548173ffffffffffffffffffffffffffffffffffffffff021916908373ffffffffffffffffffffffffffffffffffffffff160217905550338160070160006101000a81548173ffffffffffffffffffffffffffffffffffffffff021916908373ffffffffffffffffffffffffffffffffffffffff16021790555060008160060160146101000a81548160ff02191690831515021790555082816008018190555060016002546112699190612074565b60028190555060019150509392505050565b6000606080600080600080600460008981526020019081526020016000206000015490506000600460008a815260200190815260200160002060010180546112c2906123cf565b80601f01602080910402602001604051908101604052809291908181526020018280546112ee906123cf565b801561133b5780601f106113105761010080835404028352916020019161133b565b820191906000526020600020905b81548152906001019060200180831161131e57829003601f168201915b505050505090506000600460008b81526020019081526020016000206002018054611365906123cf565b80601f0160208091040260200160405190810160405280929190818152602001828054611391906123cf565b80156113de5780601f106113b3576101008083540402835291602001916113de565b820191906000526020600020905b8154815290600101906020018083116113c157829003601f168201915b505050505090506000600460008c81526020019081526020016000206005015490506000600460008d815260200190815260200160002060060160009054906101000a900473ffffffffffffffffffffffffffffffffffffffff1690506000600460008e815260200190815260200160002060060160149054906101000a900460ff1690508585858585859b509b509b509b509b509b5050505050505091939550919395565b600060046000838152602001908152602001600020600901549050919050565b60025481565b6000806004600084815260200190815260200160002060070160009054906101000a900473ffffffffffffffffffffffffffffffffffffffff16600460008581526020019081526020016000206008015491509150915091565b60035481565b60003373ffffffffffffffffffffffffffffffffffffffff166004600085815260200190815260200160002060060160009054906101000a900473ffffffffffffffffffffffffffffffffffffffff1673ffffffffffffffffffffffffffffffffffffffff16146115b0576040517f08c379a00000000000000000000000000000000000000000000000000000000081526004016115a79061244d565b60405180910390fd5b6004600084815260200190815260200160002060060160149054906101000a900460ff1615611614576040517f08c379a000000000000000000000000000000000000000000000000000000000815260040161160b906124b9565b60405180910390fd5b426004600085815260200190815260200160002060030181905550814261163b9190612074565b600460008581526020019081526020016000206004018190555060016004600085815260200190815260200160002060060160146101000a81548160ff0219169083151502179055506004600084815260200190815260200160002060060160149054906101000a900460ff16905092915050565b60004260046000848152602001908152602001600020600401546116d491906124d9565b9050919050565b60006004600083815260200190815260200160002060060160149054906101000a900460ff16611740576040517f08c379a000000000000000000000000000000000000000000000000000000000815260040161173790612559565b60405180910390fd5b3373ffffffffffffffffffffffffffffffffffffffff166004600084815260200190815260200160002060060160009054906101000a900473ffffffffffffffffffffffffffffffffffffffff1673ffffffffffffffffffffffffffffffffffffffff1614156117e5576040517f08c379a00000000000000000000000000000000000000000000000000000000081526004016117dc90612182565b60405180910390fd5b600460008381526020019081526020016000206004015442111561183e576040517f08c379a00000000000000000000000000000000000000000000000000000000081526004016118359061224e565b60405180910390fd5b60046000838152602001908152602001600020600501543411611896576040517f08c379a000000000000000000000000000000000000000000000000000000000815260040161188d906125c5565b60405180910390fd5b600460008381526020019081526020016000206008015434116118ee576040517f08c379a00000000000000000000000000000000000000000000000000000000081526004016118e5906125c5565b60405180910390fd5b6004600083815260200190815260200160002060070160009054906101000a900473ffffffffffffffffffffffffffffffffffffffff1673ffffffffffffffffffffffffffffffffffffffff166108fc60046000858152602001908152602001600020600801549081150290604051600060405180830381858888f19350505050158015611980573d6000803e3d6000fd5b50346004600084815260200190815260200160002060080181905550336004600084815260200190815260200160002060070160006101000a81548173ffffffffffffffffffffffffffffffffffffffff021916908373ffffffffffffffffffffffffffffffffffffffff160217905550600160026000828254611a049190612074565b92505081905550600160036000828254611a1e9190612074565b925050819055506002549050919050565b60008173ffffffffffffffffffffffffffffffffffffffff16319050919050565b828054611a5c906123cf565b90600052602060002090601f016020900481019282611a7e5760008555611ac5565b82601f10611a9757805160ff1916838001178555611ac5565b82800160010185558215611ac5579182015b82811115611ac4578251825591602001919060010190611aa9565b5b509050611ad29190611ad6565b5090565b5b80821115611aef576000816000905550600101611ad7565b5090565b6000604051905090565b600080fd5b600080fd5b6000819050919050565b611b1a81611b07565b8114611b2557600080fd5b50565b600081359050611b3781611b11565b92915050565b60008060408385031215611b5457611b53611afd565b5b6000611b6285828601611b28565b9250506020611b7385828601611b28565b9150509250929050565b600073ffffffffffffffffffffffffffffffffffffffff82169050919050565b6000611ba882611b7d565b9050919050565b611bb881611b9d565b82525050565b611bc781611b07565b82525050565b6000604082019050611be26000830185611baf565b611bef6020830184611bbe565b9392505050565b600060208284031215611c0c57611c0b611afd565b5b6000611c1a84828501611b28565b91505092915050565b6000602082019050611c386000830184611bbe565b92915050565b60008115159050919050565b611c5381611c3e565b82525050565b6000604082019050611c6e6000830185611bbe565b611c7b6020830184611c4a565b9392505050565b6000602082019050611c976000830184611c4a565b92915050565b6000602082019050611cb26000830184611baf565b92915050565b600080fd5b600080fd5b6000601f19601f8301169050919050565b7f4e487b7100000000000000000000000000000000000000000000000000000000600052604160045260246000fd5b611d0b82611cc2565b810181811067ffffffffffffffff82111715611d2a57611d29611cd3565b5b80604052505050565b6000611d3d611af3565b9050611d498282611d02565b919050565b600067ffffffffffffffff821115611d6957611d68611cd3565b5b611d7282611cc2565b9050602081019050919050565b82818337600083830152505050565b6000611da1611d9c84611d4e565b611d33565b905082815260208101848484011115611dbd57611dbc611cbd565b5b611dc8848285611d7f565b509392505050565b600082601f830112611de557611de4611cb8565b5b8135611df5848260208601611d8e565b91505092915050565b600080600060608486031215611e1757611e16611afd565b5b600084013567ffffffffffffffff811115611e3557611e34611b02565b5b611e4186828701611dd0565b935050602084013567ffffffffffffffff811115611e6257611e61611b02565b5b611e6e86828701611dd0565b9250506040611e7f86828701611b28565b9150509250925092565b600081519050919050565b600082825260208201905092915050565b60005b83811015611ec3578082015181840152602081019050611ea8565b83811115611ed2576000848401525b50505050565b6000611ee382611e89565b611eed8185611e94565b9350611efd818560208601611ea5565b611f0681611cc2565b840191505092915050565b600060c082019050611f266000830189611bbe565b8181036020830152611f388188611ed8565b90508181036040830152611f4c8187611ed8565b9050611f5b6060830186611bbe565b611f686080830185611baf565b611f7560a0830184611c4a565b979650505050505050565b611f8981611b9d565b8114611f9457600080fd5b50565b600081359050611fa681611f80565b92915050565b600060208284031215611fc257611fc1611afd565b5b6000611fd084828501611f97565b91505092915050565b7f61756374696f6e20207374617274000000000000000000000000000000000000600082015250565b600061200f600e83611e94565b915061201a82611fd9565b602082019050919050565b6000602082019050818103600083015261203e81612002565b9050919050565b7f4e487b7100000000000000000000000000000000000000000000000000000000600052601160045260246000fd5b600061207f82611b07565b915061208a83611b07565b9250827fffffffffffffffffffffffffffffffffffffffffffffffffffffffffffffffff038211156120bf576120be612045565b5b828201905092915050565b7f61756374696f6e20737461727400000000000000000000000000000000000000600082015250565b6000612100600d83611e94565b915061210b826120ca565b602082019050919050565b6000602082019050818103600083015261212f816120f3565b9050919050565b7f596f752063616e277420796f757273656c660000000000000000000000000000600082015250565b600061216c601283611e94565b915061217782612136565b602082019050919050565b6000602082019050818103600083015261219b8161215f565b9050919050565b7f4e487b7100000000000000000000000000000000000000000000000000000000600052601260045260246000fd5b60006121dc82611b07565b91506121e783611b07565b9250826121f7576121f66121a2565b5b828204905092915050565b7f61756374696f6e20656e64656400000000000000000000000000000000000000600082015250565b6000612238600d83611e94565b915061224382612202565b602082019050919050565b600060208201905081810360008301526122678161222b565b9050919050565b7f6e6f74696d650000000000000000000000000000000000000000000000000000600082015250565b60006122a4600683611e94565b91506122af8261226e565b602082019050919050565b600060208201905081810360008301526122d381612297565b9050919050565b7f61756374696f6e206e6f742079657420656e6465640000000000000000000000600082015250565b6000612310601583611e94565b915061231b826122da565b602082019050919050565b6000602082019050818103600083015261233f81612303565b9050919050565b600061235182611b07565b915061235c83611b07565b9250817fffffffffffffffffffffffffffffffffffffffffffffffffffffffffffffffff048311821515161561239557612394612045565b5b828202905092915050565b7f4e487b7100000000000000000000000000000000000000000000000000000000600052602260045260246000fd5b600060028204905060018216806123e757607f821691505b602082108114156123fb576123fa6123a0565b5b50919050565b7f6e6f206f77657200000000000000000000000000000000000000000000000000600082015250565b6000612437600783611e94565b915061244282612401565b602082019050919050565b600060208201905081810360008301526124668161242a565b9050919050565b7f61756374696f6e20616c72656164792073746172740000000000000000000000600082015250565b60006124a3601583611e94565b91506124ae8261246d565b602082019050919050565b600060208201905081810360008301526124d281612496565b9050919050565b60006124e482611b07565b91506124ef83611b07565b92508282101561250257612501612045565b5b828203905092915050565b7f61756374696f6e206e6f74207965742073746172740000000000000000000000600082015250565b6000612543601583611e94565b915061254e8261250d565b602082019050919050565b6000602082019050818103600083015261257281612536565b9050919050565b7f6c657373207468616e2068696768657374206269640000000000000000000000600082015250565b60006125af601583611e94565b91506125ba82612579565b602082019050919050565b600060208201905081810360008301526125de816125a2565b905091905056fea264697066735822122009ee48049bb6746e4a064fb888535c07f764809631ae6bd13a52a9c0b8d434e664736f6c634300080a0033",
  "immutableReferences": {},
  "source": "// SPDX-License-Identifier: MIT\r\npragma solidity ^0.8.0;\r\n\r\n//AuctionStore\r\ncontract AuctionStore {\r\n    // beneficiary \r\n    event returnMoney(address beneficiary, uint256 amount);\r\n    //()\r\n    mapping(string => bool) goodsChk;\r\n    //\r\n    // struct Bid {\r\n    //     address bidder;\r\n    //     uint256 value;\r\n    // }\r\n    address public defaultaddress;\r\n    uint256 public productIndex;\r\n    uint256 public totalBidders;\r\n    // \r\n    // mapping(address => mapping(uint256 => Product)) stores;\r\n    //\r\n    struct Product {\r\n        //id\r\n        uint256 id;\r\n        //\r\n        string name;\r\n        //\r\n        string category;\r\n        //\r\n        uint256 auctionStartTime;\r\n        //\r\n        uint256 auctionEndTime;\r\n        //\r\n        uint256 startPrice;\r\n        //\r\n        address ower;\r\n        //\r\n        bool status;\r\n        //()\r\n        address highestBidder;\r\n        //\r\n        uint256 highestprice;\r\n        //\r\n        uint256 totalBidders;\r\n    }\r\n\r\n    //id\r\n    constructor() {\r\n        productIndex = 0;\r\n    }\r\n\r\n    mapping(uint256 => Product) requests;\r\n\r\n    //\r\n    function addProductToStore(\r\n        string memory _name,\r\n        string memory _category,\r\n        uint256 _startPrice\r\n    ) public returns (bool) {\r\n        //ID\r\n        // Product memory products = Product({\r\n        Product storage r = requests[productIndex];\r\n        r.id = productIndex;\r\n        r.name = _name;\r\n        r.category = _category;\r\n        r.startPrice = _startPrice;\r\n        r.ower = msg.sender;\r\n        r.highestBidder = msg.sender;\r\n        r.status = false;\r\n        r.highestprice = _startPrice;\r\n        productIndex = productIndex + 1;\r\n        return true;\r\n    }\r\n\r\n    //ID()\r\n    function getProduct(uint256 _productId)\r\n        public\r\n        view\r\n        returns (\r\n            uint256,\r\n            string memory,\r\n            string memory,\r\n            uint256,\r\n            address,\r\n            bool\r\n        )\r\n    {\r\n        //idid\r\n        uint256 idnumber = requests[_productId].id;\r\n        string memory name = requests[_productId].name;\r\n        string memory category = requests[_productId].category;\r\n        // uint256 auctionStartTime = requests[_productId].auctionStartTime;\r\n        // uint256 auctionEndTime = requests[_productId].auctionEndTime;\r\n        uint256 startPrice = requests[_productId].startPrice;\r\n        address ower = requests[_productId].ower;\r\n        bool status = requests[_productId].status;\r\n        return (\r\n            idnumber,\r\n            name,\r\n            category,\r\n            // auctionStartTime,\r\n            // auctionEndTime,\r\n            startPrice,\r\n            ower,\r\n            status\r\n        );\r\n    }\r\n\r\n    //\r\n    function setAuctionStart(uint256 id, uint256 _timeLimit)\r\n        public\r\n        returns (bool)\r\n    {\r\n        //\r\n        //\r\n        require(requests[id].ower == msg.sender, \"no ower\");\r\n        //(flase,)\r\n        require(!requests[id].status, \"auction already start\");\r\n        // beneficiary = payable(address(uint160(msg.sender)));\r\n        //\r\n        requests[id].auctionStartTime = block.timestamp;\r\n        //\r\n        //+\r\n        requests[id].auctionEndTime = block.timestamp + _timeLimit;\r\n        //\r\n        requests[id].status = true;\r\n        //\r\n        // emit AuctionStartEvt(msg.sender);\r\n        return requests[id].status;\r\n    }\r\n\r\n    //\r\n    function getMoney(uint256 id) public view returns (uint256) {\r\n        // require(requests[id].highestBidder == msg.sender, \"no one to bid\");\r\n        return requests[id].highestprice;\r\n    }\r\n\r\n    //\r\n    function tobid(uint256 id) public payable returns (uint256) {\r\n        //,\r\n        //\r\n        require(requests[id].status, \"auction not yet start\");\r\n        //\r\n        require(requests[id].ower != msg.sender, \"You can't yourself\");\r\n        //\r\n        require(\r\n            block.timestamp <= requests[id].auctionEndTime,\r\n            \"auction ended\"\r\n        );\r\n        //\r\n        require(msg.value > requests[id].startPrice, \"less than highest bid\");\r\n        require(msg.value > requests[id].highestprice, \"less than highest bid\");\r\n        payable(requests[id].highestBidder).transfer(requests[id].highestprice);\r\n        requests[id].highestprice = msg.value;\r\n        requests[id].highestBidder = msg.sender;\r\n        productIndex += 1;\r\n        totalBidders += 1;\r\n        return productIndex;\r\n    }\r\n\r\n    //()\r\n    function break_promise(uint256 id) public returns (bool) {\r\n        //\r\n        require(requests[id].status, \"auction start\");\r\n        //\r\n        require(requests[id].ower != msg.sender, \"You can't yourself\");\r\n        require(requests[id].highestBidder == msg.sender, \"You can't yourself\");\r\n        //\r\n        require(\r\n            block.timestamp <= requests[id].auctionEndTime,\r\n            \"auction ended\"\r\n        );\r\n        payable(requests[id].highestBidder).transfer(\r\n            ((requests[id].highestprice) * 7) / 10\r\n        );\r\n        requests[id].status = false;\r\n        requests[id].auctionStartTime = 0;\r\n        requests[id].auctionEndTime = 0;\r\n        requests[id].highestprice = 0;\r\n        requests[id].highestBidder = defaultaddress;\r\n        payable(requests[id].ower).transfer(\r\n            ((requests[id].highestprice) * 3) / 10\r\n        );\r\n        return true;\r\n        //emit returnMoney(msg.sender, msg.value);\r\n    }\r\n\r\n    //\r\n    function owerbreak_promise(uint256 id) public payable returns (bool) {\r\n        //\r\n        require(requests[id].status, \"auction start\");\r\n        //\r\n        require(requests[id].ower == msg.sender, \"You can't yourself\");\r\n        uint256 value1 = requests[id].startPrice / 10;\r\n        require(msg.value == value1, \"You can't yourself\");\r\n        //require(requests[id].highestBidder == msg.sender, \"You can't yourself\");\r\n        //\r\n        require(\r\n            block.timestamp <= requests[id].auctionEndTime,\r\n            \"auction ended\"\r\n        );\r\n        if (requests[id].highestBidder == defaultaddress) {\r\n            requests[id].status = false;\r\n            requests[id].auctionStartTime = 0;\r\n            requests[id].auctionEndTime = 0;\r\n            requests[id].highestprice = 0;\r\n            requests[id].highestBidder = defaultaddress;\r\n        } else {\r\n            payable(requests[id].highestBidder).transfer(\r\n                requests[id].highestprice\r\n            );\r\n            payable(requests[id].highestBidder).transfer(\r\n                (requests[id].startPrice / 10)\r\n            );\r\n        }\r\n\r\n        return true;\r\n        //emit returnMoney(msg.sender, msg.value);\r\n    }\r\n\r\n    //\r\n    function setAuctionEnd(uint256 id) public {\r\n        //\r\n        require(block.timestamp >= requests[id].auctionStartTime, \"notime\");\r\n        require(requests[id].status = true, \"auction not yet ended\");\r\n        requests[id].status = false;\r\n        requests[id].auctionStartTime = 0;\r\n        requests[id].auctionEndTime = 0;\r\n        requests[id].startPrice = requests[id].highestprice;\r\n        requests[id].ower = requests[id].highestBidder;\r\n    }\r\n\r\n    //:\r\n    function getBalance(address addr) public view returns (uint256) {\r\n        return addr.balance;\r\n    }\r\n\r\n    //\r\n    function queryBalance() public view returns (uint256) {\r\n        return address(this).balance;\r\n    }\r\n\r\n    //\r\n    //1. \r\n    function highestBidderInfo(uint256 id)\r\n        public\r\n        view\r\n        returns (address, uint256)\r\n    {\r\n        return (requests[id].highestBidder, requests[id].highestprice);\r\n    }\r\n\r\n    // \r\n    function totalBid(uint256 id) public view returns (uint256) {\r\n        return requests[id].totalBidders;\r\n    }\r\n\r\n    //\r\n    function showProductstatus(uint256 id) public view returns (uint256, bool) {\r\n        return (requests[id].id, requests[id].status);\r\n    }\r\n\r\n    //\r\n    function getNewInformation() public view returns (address, uint256) {\r\n        return (address(msg.sender), address(msg.sender).balance);\r\n    }\r\n\r\n    //\r\n    function timeRemaining(uint256 id) public view returns (uint256) {\r\n        return requests[id].auctionEndTime - block.timestamp;\r\n    }\r\n\r\n    //\r\n    function AddTime(uint256 id, uint256 _addtime) public {\r\n        //\r\n        require(requests[id].status == true, \"auction  start\");\r\n        //\r\n        requests[id].auctionEndTime = requests[id].auctionEndTime + _addtime;\r\n    }\r\n}\r\n",
  "sourcePath": "D:\\Jh_Final_assignment\\B200602--20211212\\Truffle\\contracts\\Auction.sol",
  "compiler": {
    "name": "solc",
    "version": "0.8.10+commit.fc410830.Emscripten.clang"
  },
  "schemaVersion": "3.4.3",
  "updatedAt": "2021-12-13T00:33:14.406Z",
  "devdoc": {
    "kind": "dev",
    "methods": {},
    "version": 1
  },
  "userdoc": {
    "kind": "user",
    "methods": {},
    "version": 1
  }
}