{
  "contractName": "AuctionFactory",
  "abi": [
    {
      "anonymous": false,
      "inputs": [
        {
          "indexed": false,
          "internalType": "address",
          "name": "auctionContract",
          "type": "address"
        },
        {
          "indexed": false,
          "internalType": "address",
          "name": "owner",
          "type": "address"
        },
        {
          "indexed": false,
          "internalType": "uint256",
          "name": "numAuctions",
          "type": "uint256"
        },
        {
          "indexed": false,
          "internalType": "address[]",
          "name": "allAuctions",
          "type": "address[]"
        }
      ],
      "name": "AuctionCreated",
      "type": "event"
    },
    {
      "inputs": [
        {
          "internalType": "uint256",
          "name": "",
          "type": "uint256"
        }
      ],
      "name": "auctions",
      "outputs": [
        {
          "internalType": "address",
          "name": "",
          "type": "address"
        }
      ],
      "stateMutability": "view",
      "type": "function"
    },
    {
      "inputs": [],
      "name": "allAuctions",
      "outputs": [
        {
          "internalType": "address[]",
          "name": "",
          "type": "address[]"
        }
      ],
      "stateMutability": "view",
      "type": "function"
    }
  ],
  "bytecode": "0x608060405234801561001057600080fd5b50610330806100206000396000f3fe608060405234801561001057600080fd5b50600436106100365760003560e01c80631bbcd4a51461003b578063571a26a014610059575b600080fd5b610043610089565b6040516100509190610246565b60405180910390f35b610073600480360381019061006e91906102a3565b610117565b60405161008091906102df565b60405180910390f35b6060600080548060200260200160405190810160405280929190818152602001828054801561010d57602002820191906000526020600020905b8160009054906101000a900473ffffffffffffffffffffffffffffffffffffffff1673ffffffffffffffffffffffffffffffffffffffff16815260200190600101908083116100c3575b5050505050905090565b6000818154811061012757600080fd5b906000526020600020016000915054906101000a900473ffffffffffffffffffffffffffffffffffffffff1681565b600081519050919050565b600082825260208201905092915050565b6000819050602082019050919050565b600073ffffffffffffffffffffffffffffffffffffffff82169050919050565b60006101ad82610182565b9050919050565b6101bd816101a2565b82525050565b60006101cf83836101b4565b60208301905092915050565b6000602082019050919050565b60006101f382610156565b6101fd8185610161565b935061020883610172565b8060005b8381101561023957815161022088826101c3565b975061022b836101db565b92505060018101905061020c565b5085935050505092915050565b6000602082019050818103600083015261026081846101e8565b905092915050565b600080fd5b6000819050919050565b6102808161026d565b811461028b57600080fd5b50565b60008135905061029d81610277565b92915050565b6000602082840312156102b9576102b8610268565b5b60006102c78482850161028e565b91505092915050565b6102d9816101a2565b82525050565b60006020820190506102f460008301846102d0565b9291505056fea26469706673582212209c02b02d36fbce62f4cd6a62c2c7f341d5ff99f54104d72375a346748661b45864736f6c634300080a0033",
  "immutableReferences": {},
  "source": "//SPDX-License-Identifier: UNLICENSED\r\npragma solidity ^0.8.0;\r\n\r\ncontract AuctionFactory {\r\n    address[] public auctions;\r\n\r\n    event AuctionCreated(\r\n        address auctionContract,\r\n        address owner,\r\n        uint256 numAuctions,\r\n        address[] allAuctions\r\n    );\r\n\r\n    function allAuctions() public view returns (address[] memory) {\r\n        return auctions;\r\n    }\r\n}\r\n",
  "sourcePath": "D:\\Jh_Final_assignment\\B200602--20211212\\Truffle\\contracts\\AuctionFactory.sol",
  "compiler": {
    "name": "solc",
    "version": "0.8.10+commit.fc410830.Emscripten.clang"
  },
  "schemaVersion": "3.4.3",
  "updatedAt": "2021-12-13T00:33:14.424Z",
  "devdoc": {
    "kind": "dev",
    "methods": {},
    "version": 1
  },
  "userdoc": {
    "kind": "user",
    "methods": {},
    "version": 1
  }
}